:020000040800F2
:1000000000000320C1020008C7020008CB0200085C
:100010003D030008410300088903000800000000B8
:10002000000000000000000000000000D1030008F4
:10003000D503000800000000D9030008DD03000814
:100040008107000881070008810700088107000870
:100050008107000881070008810700088107000860
:100060008107000881070008810700088107000850
:100070008107000881070008810700088107000840
:100080008107000881070008810700088107000830
:100090008107000881070008810700088107000820
:1000A0008107000881070008810700088107000810
:1000B0008107000881070008810700088107000800
:1000C00081070008810700088107000881070008F0
:1000D00081070008810700088107000881070008E0
:1000E00081070008810700088107000881070008D0
:1000F00081070008810700088107000881070008C0
:1001000081070008810700088107000881070008AF
:10011000810700088107000881070008810700089F
:10012000810700088107000881070008810700088F
:10013000810700088107000881070008810700087F
:10014000810700088107000881070008810700086F
:10015000810700088107000881070008810700085F
:10016000810700088107000881070008810700084F
:1001700081070008810700088107000800000000CF
:10018000810700088107000881070008810700082F
:10019000810700088107000881070008810700081F
:1001A00081070008810700088107000800B583B0B7
:1001B00000F0D6FA304B314A1360314A1360314BAC
:1001C000314A03E052F8041B43F8041B2F498B42C9
:1001D000F8D32A4B1A682E4B9A4200D0FEE7284BE0
:1001E0001A682C4B9A42F9D1234B2B4A13602B4AA5
:1001F00013602B4B02E0002243F8042B294A934260
:10020000F9D3254B1B6813B9244B1B6803B1FEE7D8
:1002100000F0B2FA694601A800F0C2F9224C234B63
:10022000E41AA410002504E0204B53F82530984729
:100230000135AC42F8DC1E4C1E4BE41AA41000251C
:1002400004E01C4B53F8253098470135AC42F8DCEC
:100250000099019800F0C8FB0546174C174BE41AAB
:10026000A41004E0013C154B53F824309847002CAF
:10027000F8DC284600F070F9BABADECA00000020A7
:100280007C000020000000205016000880000020A4
:100290007856341232547698800000201C010020D9
:1002A000800000202001002014040008140400082D
:1002B00014040008140400081404000814040008BE
:1002C00008B5FFF773FF00BEFEE71EF0040F0CBF7A
:1002D000EFF30880EFF309807146414A10472DE99A
:1002E000F04182B004460D46124B5F6BD3F8388064
:1002F0009E6A1B6B13F0020F03D00E4BDB6A002BC0
:100300000BDB0D4800F088F9009543463A4631462C
:10031000204600F09BF900BEFEE74BF6AB6100F013
:100320000FFA0028EDD0034B4FF00042DA6202B022
:10033000BDE8F08100ED00E05015000800BEFEE7CA
:100340001EF0040F0CBFEFF30880EFF30980714635
:10035000244A10472DE9F04182B004460D46084B6F
:100360005F6BD3F838809E6A064800F055F9009517
:1003700043463A463146204600F068F900BEFEE7A3
:1003800000ED00E0601500081EF0040F0CBFEFF355
:100390000880EFF309807146134A10472DE9F041B8
:1003A00082B004460D46084B5F6BD3F838809E6AD6
:1003B000064800F031F9009543463A46314620465A
:1003C00000F044F900BEFEE700ED00E06C15000807
:1003D00000BEFEE700BEFEE700BEFEE7704700007D
:0C03E000DF020008550300089D03000820
:1003EC005016000800000020800000205016000865
:1003FC0000000010000000108000002020010020F0
:08040C000000001000000010C8
:100420007047000010B504460E4B18784FF47A73ED
:10043000B3FBF0F30C4A1068B0FBF3F000F078F86F
:1004400068B90F2C01D901200AE0002221464FF0A3
:10045000FF3000F035F8054B1C60002000E0012063
:1004600010BD00BF04000020140000200800002080
:1004700008B5094B1A6842F400721A601A6842F40F
:1004800080621A60032000F009F80F20FFF7CAFF0E
:10049000FFF7C6FF002008BD003C0240074AD368B2
:1004A00023F4E0631B041B0C000200F4E060034330
:1004B00043F0BF6343F40033D360704700ED00E0C6
:1004C00000B5194BDB68C3F30223C3F1070CBCF181
:1004D000040F28BF4FF0040C03F1040EBEF1060F09
:1004E00018D9033B4FF0FF3E0EFA0CFC21EA0C0139
:1004F00099400EFA03F322EA0303194300280BDBA9
:100500000901C9B200F1604000F5614080F80013B4
:100510005DF804FB0023E5E700F00F000901C9B214
:10052000024B1954F4E700BF00ED00E014ED00E0C9
:100530000138B0F1807F0BD24FF0E0235861054ABB
:10054000F02182F823100020986107221A61704779
:100550000120704700ED00E0FEE7000008B503460B
:100560000C4A12685AB10B4A1068033323F0030394
:100570000344094A934206D8064A136008BD054A57
:1005800006491160EFE700F0B7FA0C2303604FF063
:10059000FF30F3E78400002000FC0220200100204F
:1005A00001230360014B0B60704700BF0C0000206B
:1005B0002DE9F04385B004460F46435633BB04256E
:1005C00028462146ABBE0446384605B0BDE8F08358
:1005D00014F901CB04AA1A4402F810CC0133AB423F
:1005E000F6D304AA1344002203F8102C4FF0040899
:1005F000E94640464946ABBE8046761B002EE3D016
:100600003546102E28BF10250023E8E70E46F5E7F3
:1006100008B5FFF7CDFF08BD0FB400B583B004AB3C
:1006200053F8042B01938021074800F0A5FA002815
:1006300004DC03B05DF804EB04B0704701460248E7
:10064000FFF7E6FFF5E700BF90000020F8B504468D
:100650000D4617461E462748FFF7DEFF216826484D
:10066000FFF7DAFF61682548FFF7D6FFA168244845
:10067000FFF7D2FFE1682348FFF7CEFF2169224848
:10068000FFF7CAFF61692148FFF7C6FFA16920484B
:10069000FFF7C2FFE1691F48FFF7BEFF1E48FFF7E3
:1006A000BBFF29461D48FFF7B7FF1D4CE16A1D48F7
:1006B000FFF7B2FF216B1C48FFF7AEFFE16B1B4851
:1006C000FFF7AAFF15F0800F0AD115F4004F0CD1E7
:1006D0001748FFF7A1FF06991648FFF79DFFF8BDE1
:1006E00039461548FFF798FFEFE731461348FFF703
:1006F00093FFEDE734140008441400085414000874
:100700006414000874140008841400089414000889
:10071000A4140008B4140008C4140008D01400087D
:1007200000ED00E0E0140008F014000800150008D7
:1007300030150008381500081015000820150008AD
:1007400083691A888A4201D0002070470268033A00
:10075000012A01D9002070470233836101207047CC
:1007600008B500F00EF8024A024B9A6008BD00BFBF
:100770000000000800ED00E008B500F003F808BD37
:10078000FEE77047224B9B6803F00C03042B14D048
:10079000082B16D01BB11F4B1F4A1A6002E01D4BDD
:1007A0001D4A1A601A4B9B68C3F303131B4AD15CA2
:1007B000184A1368CB4013607047164B184A1A60EA
:1007C000F0E7134B59685A6802F03F0211F4800FAA
:1007D00013D0134BB3FBF2F30D4A5268C2F38812E5
:1007E00002FB03F30A4A5268C2F30142013252008B
:1007F000B3FBF2F3074A1360D4E7074BB3FBF2F302
:10080000034A5268C2F3881202FB03F3EAE700BF0F
:1008100000380240140000200024F4007C15000879
:1008200040787D0130B4002404604460254607E030
:10083000303B026802EB820203EB420303600131AA
:1008400091F900306BB12D2B07D02E2B07D0002C47
:10085000EED04268013A4260EAE70125EFE7012461
:10086000EDE715B103685B42036030BC70470000E0
:10087000034658B1002006E0054A82FB0312DB174D
:10088000C3EBA2030130002BF6D170470120704763
:100890006766666602468C4641B10023012002E08D
:1008A00002FB00F001336345FADB7047012070471B
:1008B00082B070B582B0044602A800E90600079332
:1008C0001546089EB24214DAB11A0A20FFF7E2FF79
:1008D000079B00FB03F307930895009B079A1344BB
:1008E0002360019B6360204602B0BDE8704002B007
:1008F0007047B242F1DD911B0A20FFF7CBFF009B4E
:1009000000FB03F300930196E7E782B010B584B0D3
:1009100004460DF1080C8CE8060007935B42079330
:10092000089A00929CE80600FFF7C2FF204604B038
:10093000BDE8104002B0704782B000B583B00DF141
:10094000080E0EE9060005930A4603FB02F2026058
:10095000019B069A1344436003B05DF804EB02B0B8
:100960007047000082B070B582B0044602A800E96A
:10097000060007930E460846FFF77AFF08280BDCAF
:10098000C0F1090529460A20FFF784FF00FB06F69F
:100990000096019B5B1B0193009B079A93FBF2F36C
:1009A0002360019B089A9B1A636009E00D4A82FB51
:1009B0000312DB17C3EBA203236063680133636098
:1009C0002368084981FB0321DA17C2EBA10202EB7D
:1009D0008202B3EB420FE9D0204602B0BDE870407E
:1009E00002B070476766666680B596B0FFF740FD57
:1009F0003A4A13AB07CA03C31A80394B0DF14409B5
:100A000093E8030089E803000FAC13A92046FFF721
:100A100009FF49460DA8FFF705FF0F9D109E0D9F8A
:100A2000DDF83880CDF808800197CDF80090334686
:100A30002A4613A92B48FFF7EFFD0E9B00930D9B51
:100A400094E806000BA8FFF733FF0C9B02930B9B67
:100A50000193CDF800803B46324629462248FFF7F5
:100A6000DBFD0E9B00930D9B94E8060009A8FFF7A1
:100A70004CFF0A9B0293099B0193CDF800803B46F3
:100A8000324629461948FFF7C7FD0E9B00930D9B80
:100A900094E8060007A8FFF74FFF089B0293079B07
:100AA0000193CDF800803B46324629461048FFF7B7
:100AB000B3FD0E9B00930D9B94E8060005A8FFF77D
:100AC00051FF069B0293059B0193CDF800803B46A6
:100AD000324629460748FFF79FFDFEE70816000843
:100AE000141600088C150008A8150008C015000889
:100AF000D8150008F0150008014B1868704700BFB2
:100B0000180000200A44914200F1FF3300D17047E1
:100B100010B511F8014B03F8014F9142F9D110BD06
:100B200030B51446002C9BB005461A4605DA8B23D7
:100B300003604FF0FF301BB030BD4FF40273ADF8CF
:100B40000C3014BF04F1FF332346029305934FF694
:100B5000FF7300910491ADF80E3069461E9B00F0C2
:100B600075F8431CBCBF8B232B60002CE3D0009B8B
:100B700000221A70DFE7000007B5009313460A460B
:100B8000014603480068FFF7CBFF03B05DF804FBA4
:100B9000180000202DE9F0478E689E4282460C46E0
:100BA00090461F4638D88A8912F4906F32D0256853
:100BB0000969A5EB0109656905EB450505EBD575E7
:100BC00001334B446D109D4238BF1D46530531D54E
:100BD000294600F089FB064650B90C23CAF80030BC
:100BE000A38943F04003A3814FF0FF30BDE8F087B5
:100BF00021694A46FFF786FFA38923F4906343F0F7
:100C00008003A381266165614E44A5EB090526603A
:100C1000A5603E46BE4200D93E4620683246414667
:100C200000F0FEFAA3689B1BA36023683344236093
:100C30000020DBE72A4600F0B1FB06460028E1D1A0
:100C40002169504600F006FBC7E700002DE9F04F90
:100C500098468B891B069DB007460D4614460ED557
:100C60000B6963B9402100F03FFB2860286120B97F
:100C70000C233B604FF0FF30D1E040236B61002339
:100C8000099320238DF82930CDF80C803023DFF82C
:100C9000A8818DF82A304FF0010923469A4613F8AF
:100CA000012B0AB1252AF9D1BAEB040B0BD05B4614
:100CB000224629463846FFF76DFF013000F0AA8032
:100CC000099A5A4409929AF80030002B00F0A28049
:100CD00000234FF0FF32CDE905230AF1010A049306
:100CE00007938DF853301A935446052214F8011BCC
:100CF000514800F045FA049AD8B9D00644BF2023E1
:100D00008DF85330110744BF2B238DF853309AF8D8
:100D100000302A2B15D0079A544600204FF00A0CB9
:100D2000214611F8013B303B092B4ED9B0B1079257
:100D300014E0A0EB080309FA03F313430493A2465B
:100D4000D2E7039B191D1B680391002BBBBF5B42BD
:100D500042F0020207930793B8BF049223782E2B28
:100D60000CD163782A2B35D1039B1A1D1B68039283
:100D7000002BB8BF4FF0FF3302340593DFF8BCA05F
:100D800021780322504600F0FBF940B14023A0EB4C
:100D90000A0003FA00F0049B03430134049314F89F
:100DA000011B27488DF82810062200F0E9F90028D9
:100DB00038D0244B1BBB039B073323F007030833B6
:100DC0000393099B3344099367E70CFB02320C46FB
:100DD0000120A5E700230134059319464FF00A0CC2
:100DE000204610F8012B303A092A03D9002BC5D030
:100DF0000591C3E70CFB012104460123F0E703AB97
:100E000000932A46104B04A93846AFF30080421CD9
:100E10000646D6D1AB895B063FF52CAF09981DB0CD
:100E2000BDE8F08F03AB00932A46074B04A9384670
:100E300000F07AF8EBE700BF1C1600082216000845
:100E40002616000800000000950B00082DE9F04769
:100E5000164699468A680B69DDF820809342B8BF30
:100E60001346336091F8432007460C460AB101331C
:100E700033602368990642BF3368023333602568C4
:100E800015F0060506D104F1190AE36832689B1AC9
:100E9000AB4226DC94F84320131E226818BF0123BE
:100EA00092062BD404F1430249463846C04701302C
:100EB0001ED02368E568326803F00603042B08BFE0
:100EC000AD1AA36822690CBF25EAE5750025934297
:100ED000C4BF9B1AED1800261A34B5421AD100205F
:100EE00008E00123524649463846C047013003D145
:100EF0004FF0FF30BDE8F0870135C6E7E1185A1C16
:100F0000302081F84300224494F8451082F84310C1
:100F10000233C7E70123224649463846C04701301D
:100F2000E6D00136D9E700002DE9FF470F7E0C9D82
:100F3000782F914680460C469A4601F1430207D825
:100F4000622F0AD8002F00F0D880582F00F0A3801D
:100F500004F1420584F842703AE0A7F16303152BCF
:100F6000F6D801A151F823F0C10F0008D50F0008F1
:100F7000510F0008510F0008510F0008510F0008D1
:100F8000D50F0008510F0008510F0008510F00083D
:100F9000510F0008E110000805100008C3100008F8
:100FA000510F0008510F000803110008510F0008ED
:100FB00005100008510F0008510F0008CB10000861
:100FC0002B681A1D1B682A6004F1420584F8423020
:100FD0000123A3E020682968060601F104030AD56D
:100FE0000E682B60002E03DA2D23764284F84330FE
:100FF0005E480A2319E00E682B6010F0400F18BFFE
:1010000036B2EFE72B682068191D2960010601D56B
:101010001E6802E04606FBD51E8854486F2F0CBFA1
:1010200008230A23002184F843106568A560002D79
:10103000A2BF216821F0040121600EB9002D4DD01E
:101040001546B6FBF3F103FB1167C75D05F8017D9B
:101050003746BB420E46F4D9082B0BD12368DE0776
:1010600008D5236961689942DEBF302305F8013C49
:1010700005F1FF35521B2261CDF800A04B4603AAB3
:1010800021464046FFF7E2FE01304CD14FF0FF30E1
:1010900004B0BDE8F087354881F8457029682368B9
:1010A00051F8046B29601D0614D5DF0744BF43F0D7
:1010B000200323601EB9236823F02003236010233C
:1010C000B0E7236843F0200323607823284884F89E
:1010D0004530E3E7590648BFB6B2E6E71546BBE739
:1010E0002B6826686169181D286035061B6801D5C4
:1010F000196002E07006FBD51980002323611546B4
:10110000BAE72B681A1D2A601D686268002128460C
:1011100000F036F808B1401B60606368236100236B
:1011200084F84330A8E723692A4649464046D04719
:101130000130ABD023689B0713D4E068039B98422F
:10114000B8BF1846A4E70123324649464046D04777
:1011500001309BD00135E36803995B1AAB42F2DCA6
:10116000EBE7002504F11906F5E700BF2D1600088E
:101170003E16000800000000000000000000000013
:1011800001F0FF01102A2BDB10F0070F08D010F838
:10119000013B013A8B422DD010F0070F42B3F6D13C
:1011A000F0B441EA012141EA014122F007047FF055
:1011B00000070023F0E80256083C85EA010586EAAC
:1011C000010685FA47F5A3FA87F586FA47F6A5FAE8
:1011D00087F68EB9EED1F0BC01F0FF0102F00702F4
:1011E00032B110F8013B013A83EA010313B1F8D19F
:1011F0000020704701387047002D06BF3546033880
:10120000073815F0010F07D1013015F4807F02BFB8
:10121000013015F4C03F0130F0BC0138704700BF09
:10122000884210B501EB020402D98442234607D854
:10123000431EA14208D011F8012B03F8012FF8E753
:10124000024401468A4200D110BD13F8014D02F854
:10125000014DF7E738B50546002941D051F8043C67
:101260000C1F002BB8BFE41800F0CEF81D4A13681D
:1012700033B9636014602846BDE8384000F0CAB84E
:10128000A34208D9206821188B4201BF19685B6806
:1012900009182160EDE71A465B680BB1A342FAD941
:1012A00011685018A0420BD12068014450188342A5
:1012B0001160E0D118685B68536001441160DAE79F
:1012C00002D90C232B60D6E7206821188B4204BF7B
:1012D00019685B68636004BF091821605460CAE73D
:1012E00038BD00BF10010020F8B5CD1C25F0030566
:1012F00008350C2D38BF0C25002D064601DBA94210
:1013000003D90C2333600020F8BD00F07DF821499B
:101310000A6814469CB9204F3B6823B921463046E1
:1013200000F062F838602946304600F05DF8431C52
:1013300023D10C233360304600F06CF8E3E72368D8
:101340005B1B17D40B2B03D923601C44256004E0DE
:101350006368A2420CBF0B605360304600F05AF83D
:1013600004F10B00231D20F00700C21ACCD01B1A79
:10137000A350C9E722466468CCE7C41C24F00304E8
:10138000A042E3D0211A304600F02EF80130DDD122
:10139000CFE700BF1001002014010020F8B5074678
:1013A00014460E4621B9BDE8F8401146FFF79CBF30
:1013B00022B9FFF74FFF25462846F8BD00F030F868
:1013C000A0420FD221463846FFF78EFF054600287F
:1013D000F2D031462246FFF795FB31463846FFF7FB
:1013E00039FFE9E73546E7E738B5064D00230446FF
:1013F00008462B60FFF7B2F8431C02D12B6803B1FB
:10140000236038BD88000020014800F011B800BFFB
:1014100018010020014800F00CB800BF180100209E
:1014200051F8043C181F002BBCBF0B58C018704764
:1014300070477047537461636B206672616D653AE3
:101440000A000000205230203D2020253038580A64
:1014500000000000205231203D2020253038580A5D
:1014600000000000205232203D2020253038580A4C
:1014700000000000205233203D2020253038580A3B
:101480000000000020523132203D20253038580A1B
:1014900000000000204C52203D2020253038580A02
:1014A00000000000205043203D2020253038580AFD
:1014B0000000000020505352203D20253038580AAB
:1014C000000000004653522F4641523A0A000000E5
:1014D0002043465352203D2020253038580A000032
:1014E0002048465352203D2020253038580A00001D
:1014F0002044465352203D2020253038580A000011
:101500002041465352203D2020253038580A000003
:10151000204D4D464152203D20253038580A0000CC
:101520002042464152203D2020253038580A0000F4
:101530004D6973630A000000204C522F4558435FE9
:1015400052455455524E3D20253038580A0000006F
:101550005B486172644661756C745D0A000000004E
:101560005B4275734661756C745D0A005B5573610F
:1015700067654661756C745D0A000000000000003C
:101580000000000001020304060708092573203D3E
:101590002025646525642020202573203D202564B6
:1015A0006525640A000000002564652564202B2061
:1015B0002564652564203D2025646525640A0000B6
:1015C0002564652564202D202564652564203D2043
:1015D00025646525640A00002564652564202A20A9
:1015E0002564652564203D2025646525640A000086
:1015F0002564652564202F202564652564203D2011
:1016000025646525640A00002D302E3030303734D3
:101610003500000031332E3937333200232D302B83
:101620002000686C4C0065666745464700303132E3
:10163000333435363738394142434445460030313A
:0F1640003233343536373839616263646566009A
:101650007856341201FFFFFF100000008C000020BC
:10166000000000000024F4001C0000200000000026
:10167000000000000000000000000000000000006A
:10168000000000000000000000000000000000005A
:10169000000000000000000000000000000000004A
:1016A000000000000000000000000000000000003A
:1016B000000000000000000000000000000000002A
:1016C0000000000000000000000000003254769886
:04000005080001AD41
:00000001FF
